:020000040800F2
:10000000580C002019030008790300084311000868
:100010007903000879030008790300080000000054
:10002000000000000000000000000000790300084C
:1000300079030008000000007903000801040008AB
:1000400079030008790300087903000879030008A0
:100050007903000879030008790300087903000890
:100060007903000879030008790300087903000880
:100070007903000879030008790300087903000870
:100080007903000879030008790300087903000860
:100090007903000879030008790300087903000850
:1000A0007903000879030008790300087903000840
:1000B0007903000879030008790300087903000830
:1000C0007903000879030008790300087903000820
:1000D0007903000879030008790300087903000810
:1000E0007903000879030008790300087903000800
:1000F00079030008790300087903000879030008F0
:1001000079030008790300087903000879030008DF
:1001100079030008790300087903000879030008CF
:1001200079030008790300087903000879030008BF
:1001300079030008790300087903000879030008AF
:10014000790300087903000879030008790300089F
:10015000790300087903000879030008790300088F
:10016000790300087903000879030008790300087F
:10017000790300087903000879030008790300086F
:10018000790300087903000880B582B000AF786079
:10019000144B1B785A1CD1B2124A11701A467B6854
:1001A000D9B2114B99540F4B1B781A460E4B0021B4
:1001B00099540C4B1B7801330F2B05D87B680A2B05
:1001C00002D07B68002B0AD1064B00221A70064B26
:1001D00000221946042000F0ABFF0346002B08372D
:1001E000BD4680BD500400204004002080B483B090
:1001F00000AF03463960FB7197F90730002B0BDA2B
:100200000D49FB7903F00F03043B3A68D2B21201A7
:10021000D2B20B441A7609E0084997F907303A68D8
:10022000D2B21201D2B20B4483F8002300BF0C37C4
:10023000BD4680BC704700BF00ED00E000E100E07B
:1002400080B582B000AF78607B68B3F1807F01D366
:10025000012311E00A4A7B6823F07F43013B53608E
:100260000F214FF0FF30FFF7C1FF054B00229A60CE
:10027000034B07221A60002318460837BD4680BD8D
:1002800010E000E080B500AF00BF074B1B68074AD5
:10029000A2FB03239B091846FFF7D2FF0346002B5E
:1002A000F3D100BF80BD00BF2C040020D34D6210ED
:1002B00080B400AF064B1B68002B04D0044B1B68B6
:1002C000013B034A136000BFBD4680BC704700BFBE
:1002D0005404002080B400AF064B4FF47A721A60C9
:1002E00000BF044B1B68002BFBD100BFBD4680BC88
:1002F000704700BF5404002080B582B000AF786022
:1003000001E0FFF7E7FF7B685A1E7A60002BF8D107
:1003100000BF0837BD4680BD80B582B000AF114B2D
:100320007B60114B3B6007E03B681A1D3A607A68BE
:10033000111D796012681A603B680C4A9342F3D32E
:100340000B480C494FF000028842B8BF40F8042B1C
:10035000FADB00F001FF00F013F800BF0837BD46DC
:1003600080BD00BFDC120008000000204004002017
:10037000400400205804002080B400AFFEE700BF16
:1003800080B588B000AF1B4800F0D6FCFFF77AFFBD
:1003900000F06AFD00F028FD00F0A6FD00F0E4FD8D
:1003A0000023FB610023BB6100237B6100233B61D1
:1003B0000023FB600023BB6000237B600D4800F03E
:1003C000BBFC01210C4800F079FE03463B613B6910
:1003D000002B08D14FF47041084800F089FE00203E
:1003E000FFF78AFFEAE74FF47041044800F08EFE01
:1003F000E4E700BFB412000800000240000C024015
:1004000080B500AFFFF754FF00BF80BD80B483B05C
:1004100000AF78600B46FB70FB78002B06D00949D3
:10042000084B1A6B7B6813430B6306E00549054BC9
:100430001A6B7B68DB4313400B6300BF0C37BD4670
:1004400080BC70470038024080B483B000AF786051
:100450000B46FB70FB78002B06D00949084B5A6C01
:100460007B6813434B6406E00549054B5A6C7B6877
:10047000DB4313404B6400BF0C37BD4680BC704764
:100480000038024080B483B000AF78600B46FB7048
:10049000FB78002B06D00949084B5A6A7B68134346
:1004A0004B6206E00549054B5A6A7B68DB43134003
:1004B0004B6200BF0C37BD4680BC7047003802401D
:1004C00080B500AF01214FF48070FFF7DBFF002102
:1004D0004FF48070FFF7D6FF00BF80BD80B485B0B9
:1004E00000AF786039600023FB600023FB727B68FB
:1004F0005B68FB60FB6823F0407323F48073FB6050
:100500003B681B791A023B681B681343FA68134364
:10051000FB607B68FA685A607B689B68FB60FA68DE
:10052000174B1340FB603B681A693B68DB681A4352
:100530003B689B681A433B685B795B001343FA682E
:100540001343FB607B68FA689A607B68DB6AFB6038
:10055000FB6823F47003FB603B681B7D013BDAB250
:10056000FB7A1343FB72FB7A1B05FA681343FB60AB
:100570007B68FA68DA6200BF1437BD4680BC7047FA
:10058000FDF7FFC080B483B000AF78600B46FB700E
:10059000FB78002B06D07B689B6843F001027B68E8
:1005A0009A6005E07B689B6823F001027B689A6093
:1005B00000BF0C37BD4680BC704700BF80B485B01B
:1005C00000AF7860084611461A460346FB700B469A
:1005D000BB7013467B700023FB600023BB60FB787D
:1005E000092B23D97B68DB68FB60FB78A3F10A0247
:1005F00013465B001344072202FA03F3BB60BB6897
:10060000DB43FA681340FB607978FB78A3F10A02B8
:1006100013465B00134401FA03F3BB60FA68BB683E
:100620001343FB607B68FA68DA601EE07B681B6935
:10063000FB60FA7813465B001344072202FA03F3C7
:10064000BB60BB68DB43FA681340FB607978FA78DB
:1006500013465B00134401FA03F3BB60FA68BB68FE
:100660001343FB607B68FA681A61BB78062B21D8BC
:100670007B685B6BFB60BB785A1E13469B00134480
:100680001F2202FA03F3BB60BB68DB43FA68134026
:10069000FB60F978BB785A1E13469B00134401FA9D
:1006A00003F3BB60FA68BB681343FB607B68FA68BE
:1006B0005A6347E0BB780C2B21D87B681B6BFB602F
:1006C000BB78DA1F13469B0013441F2202FA03F380
:1006D000BB60BB68DB43FA681340FB60F978BB780A
:1006E000DA1F13469B00134401FA03F3BB60FA6858
:1006F000BB681343FB607B68FA681A6322E07B687F
:10070000DB6AFB60BB78A3F10D0213469B00134428
:100710001F2202FA03F3BB60BB68DB43FA68134095
:10072000FB60F978BB78A3F10D0213469B001344DC
:1007300001FA03F3BB60FA68BB681343FB607B6894
:10074000FA68DA6200BF1437BD4680BC704700BF4C
:1007500080B582B000AF0346FB71FB791846FFF706
:1007600013FD00BF0837BD4680BD00BF80B483B015
:1007700000AF78600B46FB707B68FA781A70012333
:1007800018460C37BD4680BC704700BF80B485B0AA
:1007900000AF786039600023FB600AE07B685A1C78
:1007A0007A603A68511C396012781A70FB6801331C
:1007B000FB603B681B78002BF0D1FB6818461437B0
:1007C000BD4680BC704700BF80B586B000AFF86002
:1007D0007A603B600B46FB7200237B617B68013BC8
:1007E0007B603B68092B1DD93B681D4AA2FB032394
:1007F000DB08F97A7A68F868FFF7E6FF78617B69C9
:10080000FA681344FB6010E0FB7A1946F868FFF7BA
:10081000ADFFFB680133FB607B6901337B617B6863
:10082000013B7B607B68002BEEDC39680C4BA3FB43
:100830000123DA0813469B0013445B00CA1AD3B2A3
:100840003033DBB21946F868FFF790FF02467B6948
:1008500013447B617B6918461837BD4680BD00BFD5
:10086000CDCCCCCC80B586B000AFF8607A603B6070
:100870000B46FB7200237B613B68002B03DA3B686D
:100880005B423B6101E03B683B617B68013B7B6015
:100890003B69092B1FD93B68002B0CDA3B692E4AB8
:1008A000A2FB0323DB085B42F97A7A68F868FFF75A
:1008B000D9FF78610AE03B69274AA2FB0323DB08E2
:1008C000F97A7A68F868FFF7CDFF78617B69FA6892
:1008D0001344FB6025E03B68002B11DA7B68013B89
:1008E0007B600DE0FB7A1946F868FFF73FFFFB6875
:1008F0000133FB607B6901337B617B68013B7B607B
:100900007B68002BEEDC3B68002B0ADA2D21F868AF
:10091000FFF72CFF02467B6913447B61FB680133C0
:10092000FB6039690C4BA3FB0123DA0813469B00DB
:1009300013445B00CA1AD3B23033DBB21946F868ED
:10094000FFF714FF02467B6913447B617B691846FD
:100950001837BD4680BD00BFCDCCCCCC80B588B0AB
:1009600002AFF8607A601A460B46FB721346BB7200
:1009700000237B617B68013B7B603B6A1B09002B8A
:1009800020D03B6A1B09BA7AF97A009313467A6839
:10099000F868FFF7E3FF02467B6913447B617B69DC
:1009A000FA681344FB6010E0FB7A1946F868FFF719
:1009B000DDFEFB680133FB607B6901337B617B6893
:1009C000013B7B607B68002BEEDC3B6A03F00F038E
:1009D000092B0BD83B6ADBB203F00F03DBB23033D9
:1009E000DBB21946F868FFF7C1FE19E0BB7A002BAD
:1009F0000BD03B6ADBB203F00F03DBB23733DBB261
:100A00001946F868FFF7B2FE0AE03B6ADBB203F072
:100A10000F03DBB25733DBB21946F868FFF7A6FEC7
:100A20007B6901337B617B6918461837BD4680BD01
:100A300080B58AB002AFF860B9607A603B6000238D
:100A4000BB6100237B61FB68002B00F0FC80FB682E
:100A500000221A70F7E07B681B78252B0BD0FB680F
:100A60005A1CFA607A68511C796012781A707B6996
:100A700001337B61E7E07B6801331B78252B0BD1C9
:100A8000FB685A1CFA6025221A707B6802337B606F
:100A90007B6901337B61D6E02023FB770023BB77A2
:100AA0007B6801337B607B681B78302B14D130234B
:100AB000FB777B6801337B600EE0BB7F1A469200B8
:100AC00013445B00DAB27B681B781344DBB2303B23
:100AD000BB777B6801337B607B681B782F2B03D946
:100AE0007B681B78392BE8D9BA7F7B6913441A4697
:100AF000BB689A4205D9BB68DAB27B69DBB2D31A0C
:100B0000BB777B681B78583B202B00F28E8001A2BC
:100B100052F823F0E50B00082B0C00082B0C000802
:100B20002B0C00082B0C00082B0C00082B0C0008C9
:100B30002B0C00082B0C00082B0C00082B0C0008B9
:100B4000150C0008990B00082B0C00082B0C000852
:100B50002B0C00082B0C0008990B00082B0C00082C
:100B60002B0C00082B0C00082B0C00082B0C000889
:100B70002B0C00082B0C00082B0C00082B0C000879
:100B8000010C00082B0C0008B10B00082B0C00080E
:100B90002B0C0008C90B0008B87F3B681A1D3A608F
:100BA0001B68F97F0246F868FFF75CFEB8613FE01A
:100BB000B87F3B681A1D3A601B68F97F0246F868E7
:100BC000FFF702FEB86133E0B87F3B681A1D3A6058
:100BD0001B68F97F009300230246F868FFF7BEFE0A
:100BE000B86125E0B87F3B681A1D3A601B68F97F41
:100BF000009301230246F868FFF7B0FEB86117E0E2
:100C00003B681A1D3A601B681946F868FFF7BEFD7D
:100C1000B8610DE03B681A1D3A601B68DBB21946EB
:100C2000F868FFF7A3FDB86102E04FF0FF3325E05D
:100C30007B6801337B60BB69FA681344FB607A69A7
:100C4000BB6913447B617B681B78002B04D07A69F5
:100C5000BB689A42FFF4FFAE7A69BB689A4203D23E
:100C6000FB6800221A7008E0FB68013BFB60FB6830
:100C700000221A707B69013B7B617B691846203733
:100C8000BD4680BD80B584B000AFF860B9607A60C1
:100C90007B68BA686421F868FFF7CAFE0346184605
:100CA0001037BD4680BD00BFB0B5A6B000AFF8603C
:100CB000B9607A60144B07F110041D460FCD0FC4C4
:100CC0000FCD0FC42B68236007F134037A68B9682D
:100CD0001846FFF7D7FF0346632B09DD0B4B1B6854
:100CE000DA6807F110031146184600F059F8FEE7DC
:100CF00007F13403F968184600F052F80346184625
:100D00009837BD46B0BD00BFB812000828040020C7
:100D100080B582B000AF78603960064B1B689B6875
:100D20003A6879681846FFF7BFFF03461846083748
:100D3000BD4680BD280400200FB480B582B000AF4E
:100D400007F114033B6039683869FFF7E1FF786009
:100D50007B6818460837BD46BDE8804004B0704740
:100D600080B582B000AF786039600C4B1B689A6820
:100D70003B689A4205D0094B1B68DA683B689A4287
:100D800006D17B68DBB21846FFF7E2FC7B6801E026
:100D90004FF0FF3318460837BD4680BD28040020B9
:100DA00080B584B000AF786039600023FB6012E04A
:100DB0007B681B7839681846FFF7D2FF0346B3F10A
:100DC000FF3F02D14FF0FF330AE0FB680133FB60C5
:100DD0007B6801337B607B681B78002BE8D1FB6864
:100DE00018461037BD4680BD80B588B000AF0121E0
:100DF0004FF48070FFF728FB01210420FFF706FB6A
:100E00000123BB6103233B770023FB7707F1180322
:100E10001946134800F0C4F8FFF752FB00233B606B
:100E200000233B7101237B710023BB600023FB6027
:100E300000233B6101233B753B4619460948FFF7F8
:100E40004DFB01210748FFF79DFB012301220A21E9
:100E50000448FFF7B3FB00BF2037BD4680BD00BF8D
:100E6000000802400020014080B588B000AF012199
:100E70004FF48070FFF7E8FA01210420FFF7C6FA6B
:100E80000223BB6103233B770023FB7707F11803A1
:100E90001946134800F084F8FFF712FB00233B606B
:100EA00000233B7101237B710023BB600023FB60A7
:100EB00000233B6101233B753B4619460948FFF778
:100EC0000DFB01210748FFF75DFB012301220B21E8
:100ED0000448FFF773FB00BF2037BD4680BD00BF4D
:100EE000000802400021014080B588B000AF012118
:100EF0004FF48070FFF7A8FA01210420FFF786FA6B
:100F00000423BB6103233B770023FB7707F118031E
:100F10001946134800F044F8FFF7D2FA00233B606B
:100F200000233B7101237B710023BB600023FB6026
:100F300000233B6101233B753B4619460948FFF7F7
:100F4000CDFA01210748FFF71DFB012301220C21E7
:100F50000448FFF733FB00BF2037BD4680BD00BF0C
:100F6000000802400022014080B582B000AF01219C
:100F70000120FFF74BFA01233B6000233B71002364
:100F8000BB7103237B710223FB713B461946034867
:100F900000F006F800BF0837BD4680BD00000240E3
:100FA00080B487B000AF7860396000237B61002394
:100FB0003B610023FB6000237B6176E001227B69BB
:100FC00002FA03F33B613B681A683B691340FB601C
:100FD000FA683B699A4265D17B681A687B695B0055
:100FE000032101FA03F3DB431A407B681A607B6834
:100FF0001A683B681B7919467B695B0001FA03F3A9
:101000001A437B681A603B681B79012B03D03B684D
:101010001B79022B2ED17B689A687B695B000321C8
:1010200001FA03F3DB431A407B689A607B689A6895
:101030003B685B7919467B695B0001FA03F31A434D
:101040007B689A607B685A687B699BB2012101FAD0
:1010500003F3DB431A407B685A607B685A683B683D
:101060009B7919467B699BB201FA03F39BB21A4341
:101070007B685A607B68DA687B699BB25B000321FE
:1010800001FA03F3DB431A407B68DA607B68DA68B5
:101090003B68DB7919467B695B0001FA03F31A436D
:1010A0007B68DA607B6901337B617B690F2B85D9B3
:1010B00000BF1C37BD4680BC704700BF80B485B000
:1010C00000AF78600B467B800023FB737B681A6956
:1010D0007B881340002B02D00123FB7301E0002327
:1010E000FB73FB7B18461437BD4680BC704700BFBE
:1010F00080B483B000AF78600B467B807B687A88D1
:101100001A8300BF0C37BD4680BC704780B483B0E3
:1011100000AF78600B467B807B685A697B885A40B9
:101120007B685A6100BF0C37BD4680BC704700BF6A
:10113000ABBE01E000207047002A00D01060012003
:101140007047069801884BF6AB62914202D1043099
:1011500006907047FEE7000080B500AF124A124BC0
:101160001B6843F0010313600F4B00229A600E4A84
:101170000D4B1B6823F0847323F4803313600A4BF8
:101180000A4A5A60084A084B1B6823F480231360FC
:10119000054B0022DA6000F00DF8054B4FF00062BD
:1011A0009A6000BF80BD00BF0038024010300024AC
:1011B00000ED00E080B483B000AF00237B6000232B
:1011C0003B60354A344B1B6843F480331360324B29
:1011D0001B6803F400333B607B6801337B603B6832
:1011E000002B03D17B68B3F5A06FF0D12A4B1B68AD
:1011F00003F40033002B02D001233B6001E0002305
:101200003B603B68012B42D1234A234B1B6C43F0CC
:1012100080531364214A214B1B6843F480431360BD
:101220001D4A1D4B9B6893601B4A1B4B9B6843F4F4
:1012300000439360184A184B9B6843F4A053936093
:10124000154B174A5A60144A134B1B6843F08073BE
:10125000136000BF104B1B6803F00073002BF9D024
:10126000104B40F205621A600B4A0B4B9B6823F04F
:1012700003039360084A084B9B6843F002039360A2
:1012800000BF054B9B6803F00C03082BF9D100BF8E
:101290000C37BD4680BC70470038024000700040EB
:1012A00019544007003C0240010000000200000009
:1012B0000300000068690000737464696F2E633A6C
:1012C00020696E637265617365204D41585F5354A8
:0C12D00052494E475F53495A450A0D0031
:1012DC000000000000000000010000000000000001
:1012EC0000000000000000000000000000000000F2
:1012FC0000000000000000000000000000000000E2
:10130C0000000000000000000000000000000000D1
:10131C0000000000000000000000000000000000C1
:1016FC00000000000000000000000020007A030A37
:10170C0000000000000000000102030406070809A5
:0400000508000000EF
:00000001FF
