:020000040800F2
:10000000600C00201903000879030008071200089B
:100010007903000879030008790300080000000054
:10002000000000000000000000000000790300084C
:100030007903000800000000790300084D0400085F
:1000400079030008790300087903000879030008A0
:100050007903000879030008790300087903000890
:100060007903000879030008790300087903000880
:100070007903000879030008790300087903000870
:100080007903000879030008790300087903000860
:100090007903000879030008790300087903000850
:1000A0007903000879030008790300087903000840
:1000B0007903000879030008790300087903000830
:1000C0007903000879030008790300087903000820
:1000D0007903000879030008790300087903000810
:1000E0007903000879030008790300087903000800
:1000F00079030008790300087903000879030008F0
:1001000079030008790300087903000879030008DF
:1001100079030008790300087903000879030008CF
:1001200079030008790300087903000879030008BF
:1001300079030008790300087903000879030008AF
:10014000790300087903000879030008790300089F
:10015000790300087903000879030008790300088F
:10016000790300087903000879030008790300087F
:10017000790300087903000879030008790300086F
:10018000790300087903000880B582B000AF786079
:10019000144B1B785A1CD1B2124A11701A467B6854
:1001A000D9B2114B99540F4B1B781A460E4B0021B4
:1001B00099540C4B1B7801330F2B05D87B680A2B05
:1001C00002D07B68002B0AD1064B00221A70064B26
:1001D00000221946042001F00DF80346002B0837D1
:1001E000BD4680BD500400204004002080B483B090
:1001F00000AF03463960FB7197F90730002B0BDA2B
:100200000D49FB7903F00F03043B3A68D2B21201A7
:10021000D2B20B441A7609E0084997F907303A68D8
:10022000D2B21201D2B20B4483F8002300BF0C37C4
:10023000BD4680BC704700BF00ED00E000E100E07B
:1002400080B582B000AF78607B68B3F1807F01D366
:10025000012311E00A4A7B6823F07F43013B53608E
:100260000F214FF0FF30FFF7C1FF054B00229A60CE
:10027000034B07221A60002318460837BD4680BD8D
:1002800010E000E080B500AF00BF074B1B68074AD5
:10029000A2FB03239B091846FFF7D2FF0346002B5E
:1002A000F3D100BF80BD00BF2C040020D34D6210ED
:1002B00080B400AF064B1B68002B04D0044B1B68B6
:1002C000013B034A136000BFBD4680BC704700BFBE
:1002D0005404002080B400AF064B4FF47A721A60C9
:1002E00000BF044B1B68002BFBD100BFBD4680BC88
:1002F000704700BF5404002080B582B000AF786022
:1003000001E0FFF7E7FF7B685A1E7A60002BF8D107
:1003100000BF0837BD4680BD80B582B000AF114B2D
:100320007B60114B3B6007E03B681A1D3A607A68BE
:10033000111D796012681A603B680C4A9342F3D32E
:100340000B480C494FF000028842B8BF40F8042B1C
:10035000FADB00F063FF00F013F800BF0837BD467A
:1003600080BD00BF301600080000002040040020BF
:10037000400400205C04002080B400AFFEE700BF12
:1003800080B588B000AF2C4800F040FDFFF77AFF41
:1003900000F094FD00F04AFE00F02CFE0023BB614B
:1003A00040F6B833FB6100237B6100233B610023EF
:1003B000FB600023BB6000237B6004211F4800F02A
:1003C000F9FE01211D4800F0DBFE03463B613B695D
:1003D000002B2AD14FF47041194800F0EBFE194B65
:1003E0005B889BB24FF6FF72934212D0154B1B886D
:1003F0009BB21946134B5B889BB21A46124800F019
:1004000005FD104B5B889BB2FB610E4B4FF6FF72F4
:100410005A80FA69BB689A4203DA0421074800F05F
:10042000C9FE0020FFF768FFC7E74FF4704104489A
:1004300000F0CEFEC1E700BF001600080000024039
:10044000000C0240580400200416000880B500AFDC
:10045000FFF72EFF00BF80BD80B483B000AF78608F
:100460000B46FB70FB78002B06D00949084B1A6B32
:100470007B6813430B6306E00549054B1A6B7B68E9
:10048000DB4313400B6300BF0C37BD4680BC704795
:100490000038024080B483B000AF78600B46FB7038
:1004A000FB78002B06D00949084B5A6C7B68134334
:1004B0004B6406E00549054B5A6C7B68DB431340EF
:1004C0004B6400BF0C37BD4680BC7047003802400B
:1004D00080B485B000AF786039600023FB600023F2
:1004E000FB727B685B68FB60FB6823F0407323F45E
:1004F0008073FB603B681B791A023B681B681343DF
:10050000FA681343FB607B68FA685A607B689B68F3
:10051000FB60FA68174B1340FB603B681A693B6845
:10052000DB681A433B689B681A433B685B795B0056
:100530001343FA681343FB607B68FA689A607B6830
:10054000DB6AFB60FB6823F47003FB603B681B7D88
:10055000013BDAB2FB7A1343FB72FB7A1B05FA68A4
:100560001343FB607B68FA68DA6200BF1437BD464C
:1005700080BC7047FDF7FFC080B485B000AF7860E5
:100580000023FB600E4B5B68FB60FA680D4B134069
:10059000FB607B681A687B685B681A437B689B68B2
:1005A0001A437B68DB681343FA681343FB60044A11
:1005B000FB68536000BF1437BD4680BC704700BF66
:1005C00000230140E030FCFF80B483B000AF7860CE
:1005D0000B46FB70FB78002B06D07B689B6843F0D2
:1005E00001027B689A6005E07B689B6823F001024A
:1005F0007B689A6000BF0C37BD4680BC704700BF67
:1006000080B485B000AF7860084611461A460346AC
:10061000FB700B46BB7013467B700023FB6000230E
:10062000BB60FB78092B23D97B68DB68FB60FB7818
:10063000A3F10A0213465B001344072202FA03F3F4
:10064000BB60BB68DB43FA681340FB607978FB78DA
:10065000A3F10A0213465B00134401FA03F3BB60E3
:10066000FA68BB681343FB607B68FA68DA601EE0D7
:100670007B681B69FB60FA7813465B001344072212
:1006800002FA03F3BB60BB68DB43FA681340FB600C
:100690007978FA7813465B00134401FA03F3BB60E0
:1006A000FA68BB681343FB607B68FA681A61BB7821
:1006B000062B21D87B685B6BFB60BB785A1E134608
:1006C0009B0013441F2202FA03F3BB60BB68DB43A9
:1006D000FA681340FB60F978BB785A1E13469B00FA
:1006E000134401FA03F3BB60FA68BB681343FB6071
:1006F0007B68FA685A6347E0BB780C2B21D87B688B
:100700001B6BFB60BB78DA1F13469B0013441F2250
:1007100002FA03F3BB60BB68DB43FA681340FB607B
:10072000F978BB78DA1F13469B00134401FA03F3F0
:10073000BB60FA68BB681343FB607B68FA681A63A6
:1007400022E07B68DB6AFB60BB78A3F10D021346F5
:100750009B0013441F2202FA03F3BB60BB68DB4318
:10076000FA681340FB60F978BB78A3F10D021346D9
:100770009B00134401FA03F3BB60FA68BB681343A0
:10078000FB607B68FA68DA6200BF1437BD4680BC44
:10079000704700BF80B483B000AF78607B689B680F
:1007A00043F080427B689A6000BF0C37BD4680BC36
:1007B000704700BF80B483B000AF78600B46FB7019
:1007C000FB78002B06D07B689B6843F480727B68C3
:1007D0009A6005E07B689B6823F480727B689A606E
:1007E00000BF0C37BD4680BC704700BF80B483B0EB
:1007F00000AF78600B46FB70FB78002B06D07B685F
:100800009B6843F400727B689A6005E07B689B6894
:1008100023F400727B689A6000BF0C37BD4680BC31
:10082000704700BF80B582B000AF0346FB71FB7913
:100830001846FFF7A9FC00BF0837BD4680BD00BFC2
:1008400080B483B000AF78600B46FB707B68FA78A9
:100850001A70012318460C37BD4680BC704700BF94
:1008600080B485B000AF786039600023FB600AE097
:100870007B685A1C7A603A68511C396012781A7089
:10088000FB680133FB603B681B78002BF0D1FB68F1
:1008900018461437BD4680BC704700BF80B586B08F
:1008A00000AFF8607A603B600B46FB7200237B610F
:1008B0007B68013B7B603B68092B1DD93B681D4A67
:1008C000A2FB0323DB08F97A7A68F868FFF7E6FFF2
:1008D00078617B69FA681344FB6010E0FB7A194683
:1008E000F868FFF7ADFFFB680133FB607B690133FC
:1008F0007B617B68013B7B607B68002BEEDC3968A9
:100900000C4BA3FB0123DA0813469B0013445B0046
:10091000CA1AD3B23033DBB21946F868FFF790FF3A
:1009200002467B6913447B617B6918461837BD46D4
:1009300080BD00BFCDCCCCCC80B586B000AFF86018
:100940007A603B600B46FB7200237B613B68002BA7
:1009500003DA3B685B423B6101E03B683B617B68DB
:10096000013B7B603B69092B1FD93B68002B0CDAEC
:100970003B692E4AA2FB0323DB085B42F97A7A68C3
:10098000F868FFF7D9FF78610AE03B69274AA2FBC4
:100990000323DB08F97A7A68F868FFF7CDFF7861FE
:1009A0007B69FA681344FB6025E03B68002B11DA91
:1009B0007B68013B7B600DE0FB7A1946F868FFF726
:1009C0003FFFFB680133FB607B6901337B617B6820
:1009D000013B7B607B68002BEEDC3B68002B0ADA76
:1009E0002D21F868FFF72CFF02467B6913447B61D9
:1009F000FB680133FB6039690C4BA3FB0123DA0868
:100A000013469B0013445B00CA1AD3B23033DBB2E7
:100A10001946F868FFF714FF02467B6913447B61AF
:100A20007B6918461837BD4680BD00BFCDCCCCCC05
:100A300080B588B002AFF8607A601A460B46FB7248
:100A40001346BB7200237B617B68013B7B603B6A82
:100A50001B09002B20D03B6A1B09BA7AF97A009354
:100A600013467A68F868FFF7E3FF02467B69134490
:100A70007B617B69FA681344FB6010E0FB7A1946DE
:100A8000F868FFF7DDFEFB680133FB607B6901332B
:100A90007B617B68013B7B607B68002BEEDC3B6A03
:100AA00003F00F03092B0BD83B6ADBB203F00F03F3
:100AB000DBB23033DBB21946F868FFF7C1FE19E04C
:100AC000BB7A002B0BD03B6ADBB203F00F03DBB227
:100AD0003733DBB21946F868FFF7B2FE0AE03B6A2B
:100AE000DBB203F00F03DBB25733DBB21946F86811
:100AF000FFF7A6FE7B6901337B617B6918461837D7
:100B0000BD4680BD80B58AB002AFF860B9607A603A
:100B10003B600023BB6100237B61FB68002B00F07E
:100B2000FC80FB6800221A70F7E07B681B78252B9D
:100B30000BD0FB685A1CFA607A68511C79601278F5
:100B40001A707B6901337B61E7E07B6801331B78B6
:100B5000252B0BD1FB685A1CFA6025221A707B6882
:100B600002337B607B6901337B61D6E02023FB7716
:100B70000023BB777B6801337B607B681B78302B5D
:100B800014D13023FB777B6801337B600EE0BB7FA1
:100B90001A46920013445B00DAB27B681B78134458
:100BA000DBB2303BBB777B6801337B607B681B78B3
:100BB0002F2B03D97B681B78392BE8D9BA7F7B6947
:100BC00013441A46BB689A4205D9BB68DAB27B69FE
:100BD000DBB2D31ABB777B681B78583B202B00F223
:100BE0008E8001A252F823F0B90C0008FF0C000817
:100BF000FF0C0008FF0C0008FF0C0008FF0C0008A9
:100C0000FF0C0008FF0C0008FF0C0008FF0C000898
:100C1000FF0C0008E90C00086D0C0008FF0C000830
:100C2000FF0C0008FF0C0008FF0C00086D0C00080A
:100C3000FF0C0008FF0C0008FF0C0008FF0C000868
:100C4000FF0C0008FF0C0008FF0C0008FF0C000858
:100C5000FF0C0008D50C0008FF0C0008850C0008EC
:100C6000FF0C0008FF0C00089D0C0008B87F3B68D3
:100C70001A1D3A601B68F97F0246F868FFF75CFEB0
:100C8000B8613FE0B87F3B681A1D3A601B68F97F86
:100C90000246F868FFF702FEB86133E0B87F3B68B0
:100CA0001A1D3A601B68F97F009300230246F8681A
:100CB000FFF7BEFEB86125E0B87F3B681A1D3A60B9
:100CC0001B68F97F009301230246F868FFF7B0FE26
:100CD000B86117E03B681A1D3A601B681946F8684E
:100CE000FFF7BEFDB8610DE03B681A1D3A601B6856
:100CF000DBB21946F868FFF7A3FDB86102E04FF0D8
:100D0000FF3325E07B6801337B60BB69FA681344DD
:100D1000FB607A69BB6913447B617B681B78002B9D
:100D200004D07A69BB689A42FFF4FFAE7A69BB6867
:100D30009A4203D2FB6800221A7008E0FB68013B6C
:100D4000FB60FB6800221A707B69013B7B617B6959
:100D500018462037BD4680BD80B584B000AFF8602E
:100D6000B9607A607B68BA686421F868FFF7CAFEE8
:100D7000034618461037BD4680BD00BFB0B5A6B0CB
:100D800000AFF860B9607A60144B07F110041D469B
:100D90000FCD0FC40FCD0FC42B68236007F13403B0
:100DA0007A68B9681846FFF7D7FF0346632B09DD59
:100DB0000B4B1B68DA6807F110031146184600F068
:100DC00059F8FEE707F13403F968184600F052F8C5
:100DD000034618469837BD46B0BD00BF0C16000844
:100DE0002804002080B582B000AF78603960064BDF
:100DF0001B689B683A6879681846FFF7BFFF03468F
:100E000018460837BD4680BD280400200FB480B5C1
:100E100082B000AF07F114033B6039683869FFF70F
:100E2000E1FF78607B6818460837BD46BDE8804022
:100E300004B0704780B582B000AF786039600C4B69
:100E40001B689A683B689A4205D0094B1B68DA68B0
:100E50003B689A4206D17B68DBB21846FFF7E2FC9A
:100E60007B6801E04FF0FF3318460837BD4680BD70
:100E70002804002080B584B000AF7860396000237A
:100E8000FB6012E07B681B7839681846FFF7D2FFD9
:100E90000346B3F1FF3F02D14FF0FF330AE0FB6896
:100EA0000133FB607B6801337B607B681B78002B20
:100EB000E8D1FB6818461037BD4680BD80B59CB0B0
:100EC00000AF01210120FFF7C7FA2823BB660323E7
:100ED00087F86C30002387F86F3007F168031946F4
:100EE0003F4800F0BFF801214FF48000FFF7B4FA4B
:100EF00001214FF48070FFF7CDFA3A4800F036FA3E
:100F000000237B60384BBB60384BFB6000233B61A8
:100F100002237B610023BB614FF48063FB614FF4CC
:100F200000633B624FF400537B624FF48073BB62FB
:100F30004FF40033FB6200233B6301237B630023F8
:100F4000BB630023FB633B1D1946264800F0E0FA13
:100F50000121244800F032FB00233B6400237B6422
:100F60000023BB640023FB6407F140031846FFF72E
:100F700003FB00233B65012387F85430012387F8E6
:100F800055300023BB650023FB6500233B6602232D
:100F900087F8643007F1500319461548FFF798FAAF
:100FA0000723012203211248FFF72AFB072302220D
:100FB00005210F48FFF724FB01210D48FFF716FC20
:100FC00001210B48FFF7F6FB01210948FFF7FCFA66
:100FD0000748FFF7DFFB00BF7037BD4680BD00BF8D
:100FE00000000240106402404C20014058040020E0
:100FF0000020014080B582B000AF01210120FFF741
:101000002BFA01233B6000233B710023BB710323B8
:101010007B710223FB713B461946034800F022F81E
:1010200000BF0837BD4680BD0000024080B582B0D9
:1010300000AF01210120FFF70FFA04233B600123D9
:101040003B710023BB7103237B710023FB713B4683
:101050001946034800F006F800BF0837BD4680BDBA
:101060000000024080B487B000AF78603960002390
:101070007B6100233B610023FB6000237B6176E002
:1010800001227B6902FA03F33B613B681A683B6902
:101090001340FB60FA683B699A4265D17B681A6825
:1010A0007B695B00032101FA03F3DB431A407B6891
:1010B0001A607B681A683B681B7919467B695B007C
:1010C00001FA03F31A437B681A603B681B79012B12
:1010D00003D03B681B79022B2ED17B689A687B6911
:1010E0005B00032101FA03F3DB431A407B689A603B
:1010F0007B689A683B685B7919467B695B0001FAFB
:1011000003F31A437B689A607B685A687B699BB2D9
:10111000012101FA03F3DB431A407B685A607B68C4
:101120005A683B689B7919467B699BB201FA03F3C5
:101130009BB21A437B685A607B68DA687B699BB212
:101140005B00032101FA03F3DB431A407B68DA609A
:101150007B68DA683B68DB7919467B695B0001FADA
:1011600003F31A437B68DA607B6901337B617B6937
:101170000F2B85D900BF1C37BD4680BC704700BF10
:1011800080B485B000AF78600B467B800023FB7392
:101190007B681A697B881340002B02D00123FB7304
:1011A00001E00023FB73FB7B18461437BD4680BC6F
:1011B000704700BF80B483B000AF78600B467B807F
:1011C0007B687A881A8300BF0C37BD4680BC7047A5
:1011D00080B483B000AF78600B467B807B685A692F
:1011E0007B885A407B685A6100BF0C37BD4680BC83
:1011F000704700BFABBE01E000207047002A00D05E
:10120000106001207047069801884BF6AB6291424E
:1012100002D1043006907047FEE7000080B500AFB1
:10122000124A124B1B6843F0010313600F4B00225C
:101230009A600E4A0D4B1B6823F0847323F48033AD
:1012400013600A4B0A4A5A60084A084B1B6823F489
:1012500080231360054B0022DA6000F00DF8054B87
:101260004FF000629A6000BF80BD00BF00380240AE
:101270001030002400ED00E080B483B000AF002304
:101280007B6000233B60354A344B1B6843F480335A
:101290001360324B1B6803F400333B607B680133FF
:1012A0007B603B68002B03D17B68B3F5A06FF0D166
:1012B0002A4B1B6803F40033002B02D001233B6050
:1012C00001E000233B603B68012B42D1234A234BC2
:1012D0001B6C43F080531364214A214B1B6843F479
:1012E000804313601D4A1D4B9B6893601B4A1B4B38
:1012F0009B6843F400439360184A184B9B6843F47F
:10130000A0539360154B174A5A60144A134B1B683D
:1013100043F08073136000BF104B1B6803F0007331
:10132000002BF9D0104B40F205621A600B4A0B4BB0
:101330009B6823F003039360084A084B9B6843F0C3
:101340000203936000BF054B9B6803F00C03082B5E
:10135000F9D100BF0C37BD4680BC70470038024051
:101360000070004019544007003C024080B483B034
:1013700000AF78607B681B6823F001027B681A600D
:101380007B6800221A607B6800225A607B6800221A
:101390009A607B680022DA607B6800221A617B68B1
:1013A00021225A617B68454A934203D1444B3D2236
:1013B0009A607EE07B68434A934204D1404B4FF4ED
:1013C00074629A6075E07B683F4A934204D13C4B5B
:1013D0004FF474129A606CE07B683C4A934204D1EB
:1013E000374B4FF074629A6063E07B68384A9342EF
:1013F00003D1334B374ADA605BE07B68364A93426D
:1014000003D12F4B354ADA6053E07B68344A93426C
:1014100003D12B4B334ADA604BE07B68324A93426C
:1014200004D1274B4FF03D52DA6042E07B682F4AEF
:10143000934203D12E4B3D229A603AE07B682D4ABD
:10144000934204D12A4B4FF474629A6031E07B6876
:10145000294A934204D1264B4FF474129A6028E033
:101460007B68264A934204D1214B4FF074629A6004
:101470001FE07B68224A934203D11D4B154ADA6074
:1014800017E07B681F4A934203D1194B134ADA6075
:101490000FE07B681C4A934203D1154B114ADA6076
:1014A00007E07B68194A934203D1114B4FF03D523C
:1014B000DA6000BF0C37BD4680BC70471060024048
:1014C00000600240286002404060024058600240D4
:1014D000706002403D00002088600240400F002004
:1014E000A060024000003D20B8600240106402404D
:1014F0000064024028640240406402405864024094
:101500007064024088640240A0640240B8640240F3
:1015100080B485B000AF786039600023FB607B68E1
:101520001B68FB60FA68244B1340FB603B681A6839
:101530003B68DB681A433B685B691A433B689B69FD
:101540001A433B68DB691A433B681B6A1A433B68D2
:101550005B6A1A433B689B6A1A433B685B6B1A439E
:101560003B689B6B1343FA681343FB607B68FA6824
:101570001A607B685B69FB60FB6823F00703FB6014
:101580003B68DA6A3B681B6B1343FA681343FB60E2
:101590007B68FA685A613B681A697B685A603B68E5
:1015A0005A687B689A603B689A687B68DA6000BF1B
:1015B0001437BD4680BC70473F801CF080B483B0B8
:1015C00000AF78600B46FB70FB78002B06D07B6881
:1015D0001B6843F001027B681A6005E07B681B68AA
:1015E00023F001027B681A6000BF0C37BD4680BC47
:1015F000704700BF0100000002000000030000006F
:101600006869000025642025640A00007374646919
:101610006F2E633A20696E637265617365204D4178
:10162000585F535452494E475F53495A450A0D007B
:1016300000000000000000000100000000000000A9
:10164000000000000000000000000000000000009A
:10165000000000000000000000000000000000008A
:10166000000000000000000000000000000000007A
:10167000000000000000000000000000000000006A
:101A5000000000000000000000000020007A030ADF
:101A6000000000000000000001020304060708094E
:0400000508000000EF
:00000001FF
