:020000040800F2
:10000000580C002015030008750300089F0C000819
:100010007503000875030008750300080000000060
:100020000000000000000000000000007503000850
:100030007503000800000000750300081D04000897
:1000400075030008750300087503000875030008B0
:1000500075030008750300087503000875030008A0
:100060007503000875030008750300087503000890
:100070007503000875030008750300087503000880
:100080007503000875030008750300087503000870
:100090007503000875030008750300087503000860
:1000A0007503000875030008750300087503000850
:1000B0007503000875030008750300087503000840
:1000C0007503000875030008750300087503000830
:1000D0007503000875030008750300087503000820
:1000E0007503000875030008750300087503000810
:1000F0007503000875030008750300087503000800
:1001000075030008750300087503000875030008EF
:1001100075030008750300087503000875030008DF
:1001200075030008750300087503000875030008CF
:1001300075030008750300087503000875030008BF
:1001400075030008750300087503000875030008AF
:10015000750300087503000875030008750300089F
:10016000750300087503000875030008750300088F
:10017000750300087503000875030008750300087F
:10018000750300087503000880B582B000AF786081
:10019000144B1B785A1CD1B2124A11701A467B6854
:1001A000D9B2114B99540F4B1B781A460E4B0021B4
:1001B00099540C4B1B7801330F2B05D87B680A2B05
:1001C00002D07B68002B0AD1064B00221A70064B26
:1001D00000221946042000F059FD0346002B083781
:1001E000BD4680BD500400204004002080B483B090
:1001F00000AF03463960FB7197F90730002B0BDA2B
:100200000D49FB7903F00F03043B3A68D2B21201A7
:10021000D2B20B441A7609E0084997F907303A68D8
:10022000D2B21201D2B20B4483F8002300BF0C37C4
:10023000BD4680BC704700BF00ED00E000E100E07B
:1002400080B582B000AF78607B68B3F1807F01D366
:10025000012311E00A4A7B6823F07F43013B53608E
:100260000F214FF0FF30FFF7C1FF054B00229A60CE
:10027000034B07221A60002318460837BD4680BD8D
:1002800010E000E080B500AF00BF074B1B68074AD5
:10029000A2FB03239B091846FFF7D2FF0346002B5E
:1002A000F3D100BF80BD00BF2C040020D34D6210ED
:1002B00080B400AF064B1B68002B04D0044B1B68B6
:1002C000013B034A136000BFBD4680BC704700BFBE
:1002D0005404002080B400AF054B64221A6000BFB4
:1002E000034B1B68002BFBD100BFBD4680BC704791
:1002F0005404002080B582B000AF786001E0FFF7C1
:10030000E9FF7B685A1E7A60002BF8D100BF0837DE
:10031000BD4680BD80B582B000AF114B7B60114BF4
:100320003B6007E03B681A1D3A607A68111D7960EE
:1003300012681A603B680C4A9342F3D30B480C498D
:100340004FF000028842B8BF40F8042BFADB00F0FF
:10035000B1FC00F013F800BF0837BD4680BD00BFF8
:100360001C11000800000020400400204004002070
:100370005804002080B400AFFEE700BF80B588B00D
:1003800000AF204800F036FA00F08AFA00F0C8FA10
:1003900000F006FB00F062FB00F042FBFFF772FF8B
:1003A0000023FB610023BB6100237B6100233B61D1
:1003B0000023FB600023BB6000237B600121124807
:1003C00000F02AFC03463B613B69002B14D14FF43B
:1003D00070410E4800F03AFC0D4800F05BFBF861FC
:1003E0000C4800F057FBB8610B4800F053FBF86174
:1003F0000020FFF77FFFE1E74FF47041034800F072
:1004000033FCDBE7FC10000800000240000C024057
:10041000041100080C1100081011000880B500AF8D
:10042000FFF746FF00BF80BD80B483B000AF7860A7
:100430000B46FB70FB78002B06D00949084B1A6B62
:100440007B6813430B6306E00549054B1A6B7B6819
:10045000DB4313400B6300BF0C37BD4680BC7047C5
:100460000038024080B483B000AF78600B46FB7068
:10047000FB78002B06D00949084B5A6C7B68134364
:100480004B6406E00549054B5A6C7B68DB4313401F
:100490004B6400BF0C37BD4680BC7047003802403B
:1004A00080B483B000AF78600B46FB70FB78002B04
:1004B00006D00949084B5A6A7B6813434B6206E031
:1004C0000549054B5A6A7B68DB4313404B6200BF0A
:1004D0000C37BD4680BC70470038024080B500AF85
:1004E00001214FF48070FFF7DBFF00214FF4807093
:1004F000FFF7D6FF00BF80BD80B485B000AF786045
:1005000039600023FB600023FB727B685B68FB6043
:10051000FB6823F0407323F48073FB603B681B7916
:100520001A023B681B681343FA681343FB607B683D
:10053000FA685A607B689B68FB60FA68174B134047
:10054000FB603B681A693B68DB681A433B689B6841
:100550001A433B685B795B001343FA681343FB6003
:100560007B68FA689A607B68DB6AFB60FB6823F44F
:100570007003FB603B681B7D013BDAB2FB7A1343DF
:10058000FB72FB7A1B05FA681343FB607B68FA6811
:10059000DA6200BF1437BD4680BC7047FDF7FFC06C
:1005A00080B483B000AF78600B46FB70FB78002B03
:1005B00006D07B689B6843F001027B689A6005E087
:1005C0007B689B6823F001027B689A6000BF0C3750
:1005D000BD4680BC704700BF80B485B000AF786076
:1005E000084611461A460346FB700B46BB7013467D
:1005F0007B700023FB600023BB60FB78092B23D9B1
:100600007B68DB68FB60FB78A3F10A0213465B00A2
:100610001344072202FA03F3BB60BB68DB43FA68AA
:100620001340FB607978FB78A3F10A0213465B0064
:10063000134401FA03F3BB60FA68BB681343FB6021
:100640007B68FA68DA601EE07B681B69FB60FA78F9
:1006500013465B001344072202FA03F3BB60BB6836
:10066000DB43FA681340FB607978FA7813465B0045
:10067000134401FA03F3BB60FA68BB681343FB60E1
:100680007B68FA681A61BB78062B21D87B685B6BA4
:10069000FB60BB785A1E13469B0013441F2202FACC
:1006A00003F3BB60BB68DB43FA681340FB60F97877
:1006B000BB785A1E13469B00134401FA03F3BB6038
:1006C000FA68BB681343FB607B68FA685A6347E0CB
:1006D000BB780C2B21D87B681B6BFB60BB78DA1FC7
:1006E00013469B0013441F2202FA03F3BB60BB684E
:1006F000DB43FA681340FB60F978BB78DA1F1346D6
:100700009B00134401FA03F3BB60FA68BB68134310
:10071000FB607B68FA681A6322E07B68DB6AFB6037
:10072000BB78A3F10D0213469B0013441F2202FA6B
:1007300003F3BB60BB68DB43FA681340FB60F978E6
:10074000BB78A3F10D0213469B00134401FA03F397
:10075000BB60FA68BB681343FB607B68FA68DA62C7
:1007600000BF1437BD4680BC704700BF80B483B063
:1007700000AF78607B689B6843F080427B689A603A
:1007800000BF0C37BD4680BC704700BF80B483B04B
:1007900000AF78607B68DB6C9BB218460C37BD46B7
:1007A00080BC704780B485B000AF78600B46FB70AA
:1007B0000023FB737B681A68FB781340002B02D080
:1007C0000123FB7301E00023FB73FB7B1846143706
:1007D000BD4680BC704700BF80B582B000AF034605
:1007E000FB71FB791846FFF7CFFC00BF0837BD4609
:1007F00080BD00BF80B582B000AF7860054B1B683C
:100800009B681946786800F027F8034618460837B1
:10081000BD4680BD2804002080B582B000AF78605E
:1008200039600C4B1B689A683B689A4205D0094BAB
:100830001B68DA683B689A4206D17B68DBB21846CF
:10084000FFF7CAFF7B6801E04FF0FF331846083717
:10085000BD4680BD2804002080B584B000AF78601C
:1008600039600023FB6012E07B681B78396818460A
:10087000FFF7D2FF0346B3F1FF3F02D14FF0FF3342
:100880000AE0FB680133FB607B6801337B607B68B7
:100890001B78002BE8D1FB6818461037BD4680BD99
:1008A00080B588B000AF01214FF48070FFF7DAFD0A
:1008B00001210420FFF7B8FD0123BB6103233B772F
:1008C0000023FB7707F118031946134800F016F9C7
:1008D000FFF704FE00233B6000233B7101237B7183
:1008E0000023BB600023FB6000233B6101233B75B9
:1008F0003B4619460948FFF7FFFD01210748FFF76E
:100900004FFE012301220A210448FFF765FE00BFC4
:100910002037BD4680BD00BF0008024000200140D6
:1009200080B588B000AF01214FF48070FFF79AFDC9
:1009300001210420FFF778FD0223BB6103233B77ED
:100940000023FB7707F118031946134800F0D6F887
:10095000FFF7C4FD00233B6000233B7101237B7143
:100960000023BB600023FB6000233B6101233B7538
:100970003B4619460948FFF7BFFD01210748FFF72D
:100980000FFE012301220B210448FFF725FE00BFC3
:100990002037BD4680BD00BF000802400021014055
:1009A00080B588B000AF01214FF48070FFF75AFD89
:1009B00001210420FFF738FD0423BB6103233B77AB
:1009C0000023FB7707F118031946134800F096F847
:1009D000FFF784FD00233B6000233B7101237B7103
:1009E0000023BB600023FB6000233B6101233B75B8
:1009F0003B4619460948FFF77FFD01210748FFF7ED
:100A0000CFFD012301220C210448FFF7E5FD00BFC3
:100A10002037BD4680BD00BF0008024000220140D3
:100A200080B582B000AF01210820FFF7FDFC4FF434
:100A300070433B6001233B710023BB7103237B7137
:100A40000023FB713B461946034800F057F800BFEE
:100A50000837BD4680BD00BF000C024080B582B0A3
:100A600000AF01210120FFF7DFFC01233B600023E1
:100A70003B710023BB7103237B710223FB713B4657
:100A80001946034800F03AF800BF0837BD4680BD5C
:100A90000000024080B582B000AF786014497868E9
:100AA00000F0C2F90346002B0FD11248FFF75EFE9B
:100AB00000BF02210F48FFF775FE0346002BF8D058
:100AC0000C48FFF763FE03460EE00B48FFF74EFEAF
:100AD00000BF02210848FFF765FE0346002BF8D04F
:100AE0000548FFF753FE034618460837BD4680BD4C
:100AF00018110008002101400020014080B487B097
:100B000000AF7860396000237B6100233B610023E4
:100B1000FB6000237B6176E001227B6902FA03F32C
:100B20003B613B681A683B691340FB60FA683B69AC
:100B30009A4265D17B681A687B695B00032101FAE0
:100B400003F3DB431A407B681A607B681A683B68D2
:100B50001B7919467B695B0001FA03F31A437B6832
:100B60001A603B681B79012B03D03B681B79022B71
:100B70002ED17B689A687B695B00032101FA03F33D
:100B8000DB431A407B689A607B689A683B685B79B4
:100B900019467B695B0001FA03F31A437B689A608C
:100BA0007B685A687B699BB2012101FA03F3DB433E
:100BB0001A407B685A607B685A683B689B79194683
:100BC0007B699BB201FA03F39BB21A437B685A60BC
:100BD0007B68DA687B699BB25B00032101FA03F34F
:100BE000DB431A407B68DA607B68DA683B68DB7954
:100BF00019467B695B0001FA03F31A437B68DA60EC
:100C00007B6901337B617B690F2B85D900BF1C3762
:100C1000BD4680BC704700BF80B485B000AF78602F
:100C20000B467B800023FB737B681A697B8813402B
:100C3000002B02D00123FB7301E00023FB73FB7B3D
:100C400018461437BD4680BC704700BF80B483B0DF
:100C500000AF78600B467B807B687A881A8300BF80
:100C60000C37BD4680BC704780B483B000AF78605D
:100C70000B467B807B685A697B885A407B685A6147
:100C800000BF0C37BD4680BC704700BFABBE01E063
:100C900000207047002A00D010600120704706989D
:100CA00001884BF6AB62914202D104300690704746
:100CB000FEE7000080B500AF124A124B1B6843F0FC
:100CC000010313600F4B00229A600E4A0D4B1B6804
:100CD00023F0847323F4803313600A4B0A4A5A606A
:100CE000084A084B1B6823F480231360054B00223D
:100CF000DA6000F00DF8054B4FF000629A6000BF1B
:100D000080BD00BF003802401030002400ED00E03C
:100D100080B483B000AF00237B6000233B60354A82
:100D2000344B1B6843F480331360324B1B6803F46D
:100D300000333B607B6801337B603B68002B03D151
:100D40007B68B3F5A06FF0D12A4B1B6803F4003326
:100D5000002B02D001233B6001E000233B603B6895
:100D6000012B42D1234A234B1B6C43F08053136465
:100D7000214A214B1B6843F4804313601D4A1D4BDD
:100D80009B6893601B4A1B4B9B6843F40043936032
:100D9000184A184B9B6843F4A0539360154B174AAD
:100DA0005A60144A134B1B6843F08073136000BFF2
:100DB000104B1B6803F00073002BF9D0104B40F26E
:100DC00005621A600B4A0B4B9B6823F00303936088
:100DD000084A084B9B6843F00203936000BF054B31
:100DE0009B6803F00C03082BF9D100BF0C37BD46FC
:100DF00080BC704700380240007000401954400722
:100E0000003C024000000000000000000000000064
:100E100000000000000000000000000000000000D2
:100E2000A2EB0300704700BF02780B78012A28BFAD
:100E30009A42F5D16DE9044540EA0104CDE9026723
:100E40006FF0000C4FEA447212B380EA010414F010
:100E5000070F6AD100F0070420F0070004F0030533
:100E600021F007014FEAC505F0E8042314F0040F50
:100E7000F1E804670CFA05F462EA040266EA040683
:100E80000AD063EA0403624667EA0407664603E0A1
:100E9000F0E80423F1E8046782FA4CF582EA0604DC
:100EA000A4FA8CF46CBB83FA4CF583EA0705A5FA27
:100EB0008CF595B950E9022351E9026782FA4CF5A5
:100EC00082EA0604A4FA8CF483FA4CF583EA070557
:100ED000A5FA8CF52543DBD09CB92DBAB5FA85F47B
:100EE00024F0070427FA04F1DDE9026723FA04F38A
:100EF00003F0FF0001F0FF01FDE80445A0EB010055
:100F0000704724BAB4FA84F424F0070426FA04F1F2
:100F1000DDE9026722FA04F202F0FF0001F0FF01AE
:100F2000FDE80445A0EB0100704714F0030F3CD12D
:100F300010F0030428D150F8082B51F8083B82FA2E
:100F40004CF582EA0305A5FA8CF55DB950F8042C3E
:100F500051F8043C82FA4CF582EA0305A5FA8CF5B7
:100F6000002DE8D02DBAB5FA85F424F0070423FA51
:100F700004F122FA04F202F0FF0001F0FF01FDE8A3
:100F80000445A0EB010070474FEAC40420F00300C1
:100F900050F8082B21F0030151F8083B0CFA04F437
:100FA00062EA040263EA0403C9E710F003041AD0FA
:100FB000A1EB040120F00300E40750F8042B06D055
:100FC0000FD28B785FFAA2F4E41A06D12BB1CB785A
:100FD0005FFAB2F4E41A00D11BB920465DF8104B59
:100FE000704701F1040150F8042BCC0721F00301F4
:100FF00051F8043B48D824D222F07F4482FA4CF5C1
:1010000094EA1325A5FA8CF50AD165B951F8043B89
:1010100084EA0204B4EB036F0ED150F8042BEBE723
:101020004FEA132355E035F07F454DD10878FDE8B0
:101030000445C0F1000070474FEA126203F0FF035D
:1010400047E002EA1C4482FA4CF594EA1345A5FAFB
:101050008CF50AD165B951F8043B84EA0204B4EB7B
:10106000034F0CD150F8042BEBE74FEA134330E069
:1010700015EA1C4528D10B884FEA124229E04FEAB5
:10108000124203EA1C4324E002F0FF0482FA4CF50A
:1010900094EA1365A5FA8CF50AD165B951F8043BB9
:1010A00084EA0204B4EB032F09D150F8042BEBE7D8
:1010B0004FEA13630DE015F0FF0F05D10B684FEAFF
:1010C000122223F07F4304E04FF00000FDE80445C6
:1010D000704712BA1BBA82FA4CF482EA0304A4FAEB
:1010E0008CF5B5FA85F402FA04F203FA04F34FEA38
:1010F0001260FDE80445A0EB1360704748656C6C16
:101100006F0D000073717565657A6500746170001C
:0C1110007370696E0000000074617000D4
:10111C0000000000000000000100000000000000C2
:10112C0000000000000000000000000000000000B3
:10113C0000000000000000000000000000000000A3
:10114C000000000000000000000000000000000093
:10115C000000000000000000000000000000000083
:10153C00000000000000000000000020007A030AF8
:10154C000000000000000000010203040607080967
:0400000508000000EF
:00000001FF
